{
  "contractName": "CentralBBookshop",
  "abi": [
    {
      "inputs": [
        {
          "internalType": "uint8",
          "name": "minimumCommision",
          "type": "uint8"
        }
      ],
      "stateMutability": "nonpayable",
      "type": "constructor"
    },
    {
      "anonymous": false,
      "inputs": [
        {
          "indexed": false,
          "internalType": "string",
          "name": "message",
          "type": "string"
        },
        {
          "indexed": true,
          "internalType": "bytes32",
          "name": "bookHash",
          "type": "bytes32"
        },
        {
          "indexed": false,
          "internalType": "string",
          "name": "title",
          "type": "string"
        },
        {
          "indexed": false,
          "internalType": "string",
          "name": "author",
          "type": "string"
        }
      ],
      "name": "BookAdded",
      "type": "event"
    },
    {
      "anonymous": false,
      "inputs": [
        {
          "indexed": false,
          "internalType": "string",
          "name": "message",
          "type": "string"
        },
        {
          "indexed": true,
          "internalType": "bytes32",
          "name": "bookHash",
          "type": "bytes32"
        },
        {
          "indexed": true,
          "internalType": "address",
          "name": "buyer",
          "type": "address"
        },
        {
          "indexed": false,
          "internalType": "address",
          "name": "seller",
          "type": "address"
        }
      ],
      "name": "BookBought",
      "type": "event"
    },
    {
      "anonymous": false,
      "inputs": [
        {
          "indexed": false,
          "internalType": "string",
          "name": "message",
          "type": "string"
        }
      ],
      "name": "BookRemoved",
      "type": "event"
    },
    {
      "anonymous": false,
      "inputs": [
        {
          "indexed": false,
          "internalType": "string",
          "name": "message",
          "type": "string"
        },
        {
          "indexed": false,
          "internalType": "uint256",
          "name": "price",
          "type": "uint256"
        }
      ],
      "name": "PriceUpdated",
      "type": "event"
    },
    {
      "anonymous": false,
      "inputs": [
        {
          "indexed": false,
          "internalType": "string",
          "name": "message",
          "type": "string"
        }
      ],
      "name": "SellerApproved",
      "type": "event"
    },
    {
      "anonymous": false,
      "inputs": [
        {
          "indexed": false,
          "internalType": "string",
          "name": "message",
          "type": "string"
        },
        {
          "indexed": false,
          "internalType": "address",
          "name": "userAddress",
          "type": "address"
        },
        {
          "indexed": false,
          "internalType": "bool",
          "name": "isBookOwner",
          "type": "bool"
        }
      ],
      "name": "UserCreated",
      "type": "event"
    },
    {
      "anonymous": false,
      "inputs": [
        {
          "indexed": false,
          "internalType": "string",
          "name": "message",
          "type": "string"
        }
      ],
      "name": "UserRemoved",
      "type": "event"
    },
    {
      "inputs": [],
      "name": "changeBookshopOpenStatus",
      "outputs": [],
      "stateMutability": "nonpayable",
      "type": "function"
    },
    {
      "inputs": [
        {
          "internalType": "bytes32",
          "name": "_IPFShash",
          "type": "bytes32"
        },
        {
          "internalType": "string",
          "name": "_title",
          "type": "string"
        },
        {
          "internalType": "string",
          "name": "_author",
          "type": "string"
        },
        {
          "internalType": "uint256",
          "name": "_price",
          "type": "uint256"
        },
        {
          "internalType": "uint8",
          "name": "_commission",
          "type": "uint8"
        }
      ],
      "name": "addBook",
      "outputs": [],
      "stateMutability": "nonpayable",
      "type": "function"
    },
    {
      "inputs": [
        {
          "internalType": "bool",
          "name": "bookOwner",
          "type": "bool"
        }
      ],
      "name": "addUser",
      "outputs": [],
      "stateMutability": "nonpayable",
      "type": "function"
    },
    {
      "inputs": [],
      "name": "removeUser",
      "outputs": [],
      "stateMutability": "nonpayable",
      "type": "function"
    },
    {
      "inputs": [
        {
          "internalType": "address",
          "name": "userAddress",
          "type": "address"
        }
      ],
      "name": "approveSeller",
      "outputs": [],
      "stateMutability": "nonpayable",
      "type": "function"
    },
    {
      "inputs": [
        {
          "internalType": "bytes32",
          "name": "bookHash",
          "type": "bytes32"
        }
      ],
      "name": "buyBook",
      "outputs": [],
      "stateMutability": "payable",
      "type": "function",
      "payable": true
    },
    {
      "inputs": [
        {
          "internalType": "bytes32",
          "name": "bookHash",
          "type": "bytes32"
        },
        {
          "internalType": "uint256",
          "name": "newPrice",
          "type": "uint256"
        }
      ],
      "name": "updateBookPrice",
      "outputs": [],
      "stateMutability": "nonpayable",
      "type": "function"
    },
    {
      "inputs": [
        {
          "internalType": "bytes32",
          "name": "bookHash",
          "type": "bytes32"
        }
      ],
      "name": "removeBook",
      "outputs": [],
      "stateMutability": "nonpayable",
      "type": "function"
    },
    {
      "inputs": [],
      "name": "getOwnedBooks",
      "outputs": [
        {
          "internalType": "bytes32[]",
          "name": "_ownedBooks",
          "type": "bytes32[]"
        }
      ],
      "stateMutability": "view",
      "type": "function",
      "constant": true
    },
    {
      "inputs": [],
      "name": "getUser",
      "outputs": [
        {
          "internalType": "bool",
          "name": "_authStatus",
          "type": "bool"
        },
        {
          "internalType": "bool",
          "name": "_isSeller",
          "type": "bool"
        },
        {
          "internalType": "bool",
          "name": "_isAdmin",
          "type": "bool"
        }
      ],
      "stateMutability": "view",
      "type": "function",
      "constant": true
    },
    {
      "inputs": [
        {
          "internalType": "bytes32",
          "name": "_bookHash",
          "type": "bytes32"
        }
      ],
      "name": "requestBook",
      "outputs": [
        {
          "internalType": "bytes32",
          "name": "bookHash",
          "type": "bytes32"
        },
        {
          "internalType": "bytes32",
          "name": "IPFShash",
          "type": "bytes32"
        },
        {
          "internalType": "address",
          "name": "owner",
          "type": "address"
        },
        {
          "internalType": "uint256",
          "name": "price",
          "type": "uint256"
        }
      ],
      "stateMutability": "view",
      "type": "function",
      "constant": true
    },
    {
      "inputs": [
        {
          "internalType": "uint256",
          "name": "_maxPrice",
          "type": "uint256"
        },
        {
          "internalType": "uint256",
          "name": "_minPrice",
          "type": "uint256"
        },
        {
          "internalType": "uint8",
          "name": "_count",
          "type": "uint8"
        },
        {
          "internalType": "uint256",
          "name": "_start",
          "type": "uint256"
        }
      ],
      "name": "getAvailableBooks",
      "outputs": [
        {
          "internalType": "bytes32[]",
          "name": "",
          "type": "bytes32[]"
        }
      ],
      "stateMutability": "view",
      "type": "function",
      "constant": true
    },
    {
      "inputs": [],
      "name": "getMyPurchasedBooks",
      "outputs": [
        {
          "internalType": "bytes32[]",
          "name": "_boughtBooks",
          "type": "bytes32[]"
        }
      ],
      "stateMutability": "view",
      "type": "function",
      "constant": true
    },
    {
      "inputs": [
        {
          "internalType": "address",
          "name": "userAddress",
          "type": "address"
        }
      ],
      "name": "getUserPurchasedBooks",
      "outputs": [
        {
          "internalType": "bytes32[]",
          "name": "_boughtBooks",
          "type": "bytes32[]"
        }
      ],
      "stateMutability": "view",
      "type": "function",
      "constant": true
    }
  ],
  "bytecode": "0x608060405260008060006101000a81548160ff0219169083151502179055503480156200002b57600080fd5b506040516200460a3803806200460a8339818101604052810190620000519190620000cb565b33600060016101000a81548173ffffffffffffffffffffffffffffffffffffffff021916908373ffffffffffffffffffffffffffffffffffffffff16021790555080600260006101000a81548160ff021916908360ff160217905550506200011e565b600081519050620000c58162000104565b92915050565b600060208284031215620000de57600080fd5b6000620000ee84828501620000b4565b91505092915050565b600060ff82169050919050565b6200010f81620000f7565b81146200011b57600080fd5b50565b6144dc806200012e6000396000f3fe6080604052600436106100dd5760003560e01c8063832880e71161007f578063989ec1e111610059578063989ec1e11461029f578063c35b28b2146102df578063f944f4c714610308578063f97653c61461031f576100dd565b8063832880e71461020a5780638e932bac14610237578063951f86e314610262576100dd565b80634d5e4cb9116100bb5780634d5e4cb91461015257806356c2f3ae1461017b5780635ec5d856146101a457806365b88555146101cd576100dd565b806307fd3147146100e257806313da26ea1461010b5780633409ecb914610136575b600080fd5b3480156100ee57600080fd5b506101096004803603810190610104919061344d565b610336565b005b34801561011757600080fd5b5061012061055a565b60405161012d9190613df6565b60405180910390f35b610150600480360381019061014b919061337d565b6107d7565b005b34801561015e57600080fd5b50610179600480360381019061017491906133a6565b610e36565b005b34801561018757600080fd5b506101a2600480360381019061019d919061337d565b61143c565b005b3480156101b057600080fd5b506101cb60048036038101906101c6919061332b565b6119d1565b005b3480156101d957600080fd5b506101f460048036038101906101ef919061332b565b611c7d565b6040516102019190613df6565b60405180910390f35b34801561021657600080fd5b5061021f611dab565b60405161022e93929190613e18565b60405180910390f35b34801561024357600080fd5b5061024c611f55565b6040516102599190613df6565b60405180910390f35b34801561026e57600080fd5b5061028960048036038101906102849190613489565b612081565b6040516102969190613df6565b60405180910390f35b3480156102ab57600080fd5b506102c660048036038101906102c1919061337d565b61249c565b6040516102d69493929190613e4f565b60405180910390f35b3480156102eb57600080fd5b5061030660048036038101906103019190613354565b61282c565b005b34801561031457600080fd5b5061031d612a87565b005b34801561032b57600080fd5b50610334612d67565b005b8160006003600083815260200190815260200160002054141561038e576040517f08c379a00000000000000000000000000000000000000000000000000000000081526004016103859061416e565b60405180910390fd5b60006003600083815260200190815260200160002054905060006001808303815481106103b757fe5b906000526020600020906006020160020154141561040a576040517f08c379a00000000000000000000000000000000000000000000000000000000081526004016104019061416e565b60405180910390fd5b33846000600360008381526020019081526020016000205490508273ffffffffffffffffffffffffffffffffffffffff1660018083038154811061044a57fe5b906000526020600020906006020160030160009054906101000a900473ffffffffffffffffffffffffffffffffffffffff1673ffffffffffffffffffffffffffffffffffffffff16146104d2576040517f08c379a00000000000000000000000000000000000000000000000000000000081526004016104c990614044565b60405180910390fd5b60006003600089815260200190815260200160002054905060006001808303815481106104fb57fe5b906000526020600020906006020190508781600401819055507f159e83f4712ba2552e68be9d848e49bf6dd35c24f19564ffd523b6549450a2f481600401546040516105479190613ff6565b60405180910390a1505050505050505050565b606033600560008273ffffffffffffffffffffffffffffffffffffffff1673ffffffffffffffffffffffffffffffffffffffff16815260200190815260200160002060000160149054906101000a900460ff1680156106055750600560008273ffffffffffffffffffffffffffffffffffffffff1673ffffffffffffffffffffffffffffffffffffffff16815260200190815260200160002060000160159054906101000a900460ff165b610644576040517f08c379a000000000000000000000000000000000000000000000000000000000815260040161063b90613f56565b60405180910390fd5b336001600560008373ffffffffffffffffffffffffffffffffffffffff1673ffffffffffffffffffffffffffffffffffffffff16815260200190815260200160002060000160169054906101000a900460ff1660ff16146106da576040517f08c379a00000000000000000000000000000000000000000000000000000000081526004016106d190613f96565b60405180910390fd5b600860003373ffffffffffffffffffffffffffffffffffffffff1673ffffffffffffffffffffffffffffffffffffffff16815260200190815260200160002080548060200260200160405190810160405280929190818152602001828054801561076357602002820191906000526020600020905b81548152602001906001019080831161074f575b5050505050925060008090505b83518110156107d15760006003600086848151811061078b57fe5b602002602001015181526020019081526020016000205414156107c4578381815181106107b457fe5b6020026020010160008019168152505b8080600101915050610770565b50505090565b600015156000809054906101000a900460ff1615151461082c576040517f08c379a000000000000000000000000000000000000000000000000000000000815260040161082390613f16565b60405180910390fd5b336001600560008373ffffffffffffffffffffffffffffffffffffffff1673ffffffffffffffffffffffffffffffffffffffff16815260200190815260200160002060000160169054906101000a900460ff1660ff16146108c2576040517f08c379a00000000000000000000000000000000000000000000000000000000081526004016108b990613f96565b60405180910390fd5b8160006003600083815260200190815260200160002054141561091a576040517f08c379a00000000000000000000000000000000000000000000000000000000081526004016109119061416e565b60405180910390fd5b600060036000838152602001908152602001600020549050600060018083038154811061094357fe5b9060005260206000209060060201600201541415610996576040517f08c379a000000000000000000000000000000000000000000000000000000000815260040161098d9061416e565b60405180910390fd5b600180600360008781526020019081526020016000205403815481106109b857fe5b90600052602060002090600602016004015434811115610a0d576040517f08c379a0000000000000000000000000000000000000000000000000000000008152600401610a049061418e565b60405180910390fd5b60018060036000888152602001908152602001600020540381548110610a2f57fe5b906000526020600020906006020160040154600060036000888152602001908152602001600020549050610a616131a6565b600180830381548110610a7057fe5b9060005260206000209060060201604051806101200160405290816000820154815260200160018201548152602001600282015481526020016003820160009054906101000a900473ffffffffffffffffffffffffffffffffffffffff1673ffffffffffffffffffffffffffffffffffffffff1673ffffffffffffffffffffffffffffffffffffffff168152602001600482015481526020016005820160009054906101000a90046effffffffffffffffffffffffffffff166effffffffffffffffffffffffffffff166effffffffffffffffffffffffffffff16815260200160058201600f9054906101000a900461ffff1661ffff1661ffff1681526020016005820160119054906101000a900460ff1660ff1660ff1681526020016005820160129054906101000a900460ff16151515158152505090506000816060015190506000610be7612710610bd98560c0015161ffff168660800151612e2390919063ffffffff16565b612e9390919063ffffffff16565b90506000610c02828560800151612edd90919063ffffffff16565b90506000610c14338660200151612f27565b905080600660008e815260200190815260200160002060003373ffffffffffffffffffffffffffffffffffffffff1673ffffffffffffffffffffffffffffffffffffffff16815260200190815260200160002081905550600760003373ffffffffffffffffffffffffffffffffffffffff1673ffffffffffffffffffffffffffffffffffffffff1681526020019081526020016000208c90806001815401808255809150506001900390600052602060002001600090919091909150558373ffffffffffffffffffffffffffffffffffffffff166108fc839081150290604051600060405180830381858888f19350505050158015610d17573d6000803e3d6000fd5b50600060019054906101000a900473ffffffffffffffffffffffffffffffffffffffff1673ffffffffffffffffffffffffffffffffffffffff166108fc849081150290604051600060405180830381858888f19350505050158015610d80573d6000803e3d6000fd5b503373ffffffffffffffffffffffffffffffffffffffff168c7f6827ca582e5465342e4bd2479d6b53cc68a8fe85b3fd85c51509e9f46d43331886604051610dc8919061422a565b60405180910390a350505050505080341115610e2e57600081340390503373ffffffffffffffffffffffffffffffffffffffff166108fc829081150290604051600060405180830381858888f19350505050158015610e2b573d6000803e3d6000fd5b50505b505050505050565b336001600560008373ffffffffffffffffffffffffffffffffffffffff1673ffffffffffffffffffffffffffffffffffffffff16815260200190815260200160002060000160169054906101000a900460ff1660ff1614610ecc576040517f08c379a0000000000000000000000000000000000000000000000000000000008152600401610ec390613f96565b60405180910390fd5b33600560008273ffffffffffffffffffffffffffffffffffffffff1673ffffffffffffffffffffffffffffffffffffffff16815260200190815260200160002060000160149054906101000a900460ff168015610f755750600560008273ffffffffffffffffffffffffffffffffffffffff1673ffffffffffffffffffffffffffffffffffffffff16815260200190815260200160002060000160159054906101000a900460ff165b610fb4576040517f08c379a0000000000000000000000000000000000000000000000000000000008152600401610fab90613f56565b60405180910390fd5b8260008160ff1610158015610fcd575060648160ff1611155b61100c576040517f08c379a000000000000000000000000000000000000000000000000000000000815260040161100390614024565b60405180910390fd5b600260009054906101000a900460ff1660ff168160ff161015611064576040517f08c379a000000000000000000000000000000000000000000000000000000000815260040161105b90614084565b60405180910390fd5b6000600460008a8152602001908152602001600020549050600060036000838152602001908152602001600020549050600081146110d7576040517f08c379a00000000000000000000000000000000000000000000000000000000081526004016110ce90613f36565b60405180910390fd5b6000600260009054906101000a900460ff1660ff168760ff16106110fa57600190505b60006111178860ff16606461ffff16612e2390919063ffffffff16565b9050600060018080549050019050806040516020016111369190613ddb565b60405160208183030381529060405280519060200120945080600360008781526020019081526020016000208190555084600460008f815260200190815260200160002081905550600860003373ffffffffffffffffffffffffffffffffffffffff1673ffffffffffffffffffffffffffffffffffffffff1681526020019081526020016000208590806001815401808255809150506001900390600052602060002001600090919091909150556111ec6131a6565b8d816020018181525050858160000181815250508181604001818152505033816060019073ffffffffffffffffffffffffffffffffffffffff16908173ffffffffffffffffffffffffffffffffffffffff16815250508a81608001818152505060008160a001906effffffffffffffffffffffffffffff1690816effffffffffffffffffffffffffffff1681525050828160c0019061ffff16908161ffff168152505060018160e0019060ff16908160ff16815250508381610100019015159081151581525050600181908060018154018082558091505060019003906000526020600020906006020160009091909190915060008201518160000155602082015181600101556040820151816002015560608201518160030160006101000a81548173ffffffffffffffffffffffffffffffffffffffff021916908373ffffffffffffffffffffffffffffffffffffffff1602179055506080820151816004015560a08201518160050160006101000a8154816effffffffffffffffffffffffffffff02191690836effffffffffffffffffffffffffffff16021790555060c082015181600501600f6101000a81548161ffff021916908361ffff16021790555060e08201518160050160116101000a81548160ff021916908360ff1602179055506101008201518160050160126101000a81548160ff0219169083151502179055505050857ffdca02c48f9008e5b1a98dd55fe119aad276d55ee1f015bfcc9d73fed9762e008e8e604051611424929190614104565b60405180910390a25050505050505050505050505050565b80600060036000838152602001908152602001600020541415611494576040517f08c379a000000000000000000000000000000000000000000000000000000000815260040161148b9061416e565b60405180910390fd5b60006003600083815260200190815260200160002054905060006001808303815481106114bd57fe5b9060005260206000209060060201600201541415611510576040517f08c379a00000000000000000000000000000000000000000000000000000000081526004016115079061416e565b60405180910390fd5b82600060036000838152602001908152602001600020549050600060018083038154811061153a57fe5b906000526020600020906006020160050160009054906101000a90046effffffffffffffffffffffffffffff166effffffffffffffffffffffffffffff16146115b8576040517f08c379a00000000000000000000000000000000000000000000000000000000081526004016115af90614064565b60405180910390fd5b33856000600360008381526020019081526020016000205490508273ffffffffffffffffffffffffffffffffffffffff166001808303815481106115f857fe5b906000526020600020906006020160030160009054906101000a900473ffffffffffffffffffffffffffffffffffffffff1673ffffffffffffffffffffffffffffffffffffffff16148061169957508273ffffffffffffffffffffffffffffffffffffffff16600060019054906101000a900473ffffffffffffffffffffffffffffffffffffffff1673ffffffffffffffffffffffffffffffffffffffff16145b6116d8576040517f08c379a00000000000000000000000000000000000000000000000000000000081526004016116cf90613fb6565b60405180910390fd5b6116e06131a6565b600180600360008c815260200190815260200160002054038154811061170257fe5b9060005260206000209060060201604051806101200160405290816000820154815260200160018201548152602001600282015481526020016003820160009054906101000a900473ffffffffffffffffffffffffffffffffffffffff1673ffffffffffffffffffffffffffffffffffffffff1673ffffffffffffffffffffffffffffffffffffffff168152602001600482015481526020016005820160009054906101000a90046effffffffffffffffffffffffffffff166effffffffffffffffffffffffffffff166effffffffffffffffffffffffffffff16815260200160058201600f9054906101000a900461ffff1661ffff1661ffff1681526020016005820160119054906101000a900460ff1660ff1660ff1681526020016005820160129054906101000a900460ff161515151581525050905060086000826060015173ffffffffffffffffffffffffffffffffffffffff1673ffffffffffffffffffffffffffffffffffffffff168152602001908152602001600020600061188a9190613228565b600180600360008c81526020019081526020016000205403815481106118ac57fe5b9060005260206000209060060201600080820160009055600182016000905560028201600090556003820160006101000a81549073ffffffffffffffffffffffffffffffffffffffff021916905560048201600090556005820160006101000a8154906effffffffffffffffffffffffffffff021916905560058201600f6101000a81549061ffff02191690556005820160116101000a81549060ff02191690556005820160126101000a81549060ff02191690555050600360008a815260200190815260200160002060009055600460008a8152602001908152602001600020600090557f2fbe5051f01f13ba3c0f1836a7495627a4aa5dc1bed39f88f01b531dc0c7756f6040516119be906140a4565b60405180910390a1505050505050505050565b600015156000809054906101000a900460ff16151514611a26576040517f08c379a0000000000000000000000000000000000000000000000000000000008152600401611a1d90613f16565b60405180910390fd5b33600060019054906101000a900473ffffffffffffffffffffffffffffffffffffffff1673ffffffffffffffffffffffffffffffffffffffff168173ffffffffffffffffffffffffffffffffffffffff1614611ab7576040517f08c379a0000000000000000000000000000000000000000000000000000000008152600401611aae90613eb6565b60405180910390fd5b816001600560008373ffffffffffffffffffffffffffffffffffffffff1673ffffffffffffffffffffffffffffffffffffffff16815260200190815260200160002060000160169054906101000a900460ff1660ff1614611b4d576040517f08c379a0000000000000000000000000000000000000000000000000000000008152600401611b4490613f96565b60405180910390fd5b600560008473ffffffffffffffffffffffffffffffffffffffff1673ffffffffffffffffffffffffffffffffffffffff16815260200190815260200160002060000160149054906101000a900460ff1615611c3d576000600560008573ffffffffffffffffffffffffffffffffffffffff1673ffffffffffffffffffffffffffffffffffffffff168152602001908152602001600020905060018160000160156101000a81548160ff0219169083151502179055507fcbd81d91c633b0a90f6a8d6ba1a2a7c61d7005918bc545c61daad613b152de4d604051611c2f90613ef6565b60405180910390a150611c78565b6040517f08c379a0000000000000000000000000000000000000000000000000000000008152600401611c6f9061414e565b60405180910390fd5b505050565b6060816001600560008373ffffffffffffffffffffffffffffffffffffffff1673ffffffffffffffffffffffffffffffffffffffff16815260200190815260200160002060000160169054906101000a900460ff1660ff1614611d15576040517f08c379a0000000000000000000000000000000000000000000000000000000008152600401611d0c90613f96565b60405180910390fd5b600760008473ffffffffffffffffffffffffffffffffffffffff1673ffffffffffffffffffffffffffffffffffffffff168152602001908152602001600020805480602002602001604051908101604052809291908181526020018280548015611d9e57602002820191906000526020600020905b815481526020019060010190808311611d8a575b5050505050915050919050565b6000806000336001600560008373ffffffffffffffffffffffffffffffffffffffff1673ffffffffffffffffffffffffffffffffffffffff16815260200190815260200160002060000160169054906101000a900460ff1660ff161480611e5f5750600060019054906101000a900473ffffffffffffffffffffffffffffffffffffffff1673ffffffffffffffffffffffffffffffffffffffff168173ffffffffffffffffffffffffffffffffffffffff16145b611e9e576040517f08c379a0000000000000000000000000000000000000000000000000000000008152600401611e9590613fd6565b60405180910390fd5b60019350600560003373ffffffffffffffffffffffffffffffffffffffff1673ffffffffffffffffffffffffffffffffffffffff16815260200190815260200160002060000160149054906101000a900460ff169250600060019054906101000a900473ffffffffffffffffffffffffffffffffffffffff1673ffffffffffffffffffffffffffffffffffffffff163373ffffffffffffffffffffffffffffffffffffffff161415611f4f57600191505b50909192565b6060336001600560008373ffffffffffffffffffffffffffffffffffffffff1673ffffffffffffffffffffffffffffffffffffffff16815260200190815260200160002060000160169054906101000a900460ff1660ff1614611fed576040517f08c379a0000000000000000000000000000000000000000000000000000000008152600401611fe490613f96565b60405180910390fd5b600760003373ffffffffffffffffffffffffffffffffffffffff1673ffffffffffffffffffffffffffffffffffffffff16815260200190815260200160002080548060200260200160405190810160405280929190818152602001828054801561207657602002820191906000526020600020905b815481526020019060010190808311612062575b505050505091505090565b6060336001600560008373ffffffffffffffffffffffffffffffffffffffff1673ffffffffffffffffffffffffffffffffffffffff16815260200190815260200160002060000160169054906101000a900460ff1660ff1614612119576040517f08c379a000000000000000000000000000000000000000000000000000000000815260040161211090613f96565b60405180910390fd5b60328460ff161115612160576040517f08c379a000000000000000000000000000000000000000000000000000000000815260040161215790613f76565b60405180910390fd5b606061216b33611c7d565b905060608560ff1667ffffffffffffffff8111801561218957600080fd5b506040519080825280602002602001820160405280156121b85781602001602082028036833780820191505090505b5090506121c36131a6565b60608760ff1667ffffffffffffffff811180156121df57600080fd5b5060405190808252806020026020018201604052801561220e5781602001602082028036833780820191505090505b5090505b61221f878960ff16612f87565b925060008090505b83518110156124805760008090505b8551811015612417576001806003600088868151811061225257fe5b6020026020010151815260200190815260200160002054038154811061227457fe5b9060005260206000209060060201604051806101200160405290816000820154815260200160018201548152602001600282015481526020016003820160009054906101000a900473ffffffffffffffffffffffffffffffffffffffff1673ffffffffffffffffffffffffffffffffffffffff1673ffffffffffffffffffffffffffffffffffffffff168152602001600482015481526020016005820160009054906101000a90046effffffffffffffffffffffffffffff166effffffffffffffffffffffffffffff166effffffffffffffffffffffffffffff16815260200160058201600f9054906101000a900461ffff1661ffff1661ffff1681526020016005820160119054906101000a900460ff1660ff1660ff1681526020016005820160129054906101000a900460ff161515151581525050935083610100015115806123e457508581815181106123c657fe5b60200260200101518583815181106123da57fe5b6020026020010151145b1561240a576000801b8583815181106123f957fe5b602002602001018181525050612417565b8080600101915050612236565b508860ff168251111561242957612480565b6000801b84828151811061243957fe5b6020026020010151146124735783818151811061245257fe5b602002602001015182828151811061246657fe5b6020026020010181815250505b8080600101915050612227565b508760ff16815110612212578095505050505050949350505050565b600080600080336001600560008373ffffffffffffffffffffffffffffffffffffffff1673ffffffffffffffffffffffffffffffffffffffff16815260200190815260200160002060000160169054906101000a900460ff1660ff1614612538576040517f08c379a000000000000000000000000000000000000000000000000000000000815260040161252f90613f96565b60405180910390fd5b85600180600360008a815260200190815260200160002054038154811061255b57fe5b9060005260206000209060060201600101543360006006600085815260200190815260200160002060008373ffffffffffffffffffffffffffffffffffffffff1673ffffffffffffffffffffffffffffffffffffffff168152602001908152602001600020541415612602576040517f08c379a00000000000000000000000000000000000000000000000000000000081526004016125f99061420a565b60405180910390fd5b6006600084815260200190815260200160002060008273ffffffffffffffffffffffffffffffffffffffff1673ffffffffffffffffffffffffffffffffffffffff1681526020019081526020016000205461265d8284612f27565b1461269d576040517f08c379a0000000000000000000000000000000000000000000000000000000008152600401612694906140e4565b60405180910390fd5b886000600360008381526020019081526020016000205414156126f5576040517f08c379a00000000000000000000000000000000000000000000000000000000081526004016126ec9061416e565b60405180910390fd5b600060036000838152602001908152602001600020549050600060018083038154811061271e57fe5b9060005260206000209060060201600201541415612771576040517f08c379a00000000000000000000000000000000000000000000000000000000081526004016127689061416e565b60405180910390fd5b6000600360008d815260200190815260200160002054905060018082038154811061279857fe5b90600052602060002090600602016004015497506001808203815481106127bb57fe5b906000526020600020906006020160030160009054906101000a900473ffffffffffffffffffffffffffffffffffffffff1698506001808203815481106127fe57fe5b90600052602060002090600602016001015499508b8a8a8a9a509a509a509a50505050505050509193509193565b600015156000809054906101000a900460ff16151514612881576040517f08c379a000000000000000000000000000000000000000000000000000000000815260040161287890613f16565b60405180910390fd5b6000600560003373ffffffffffffffffffffffffffffffffffffffff1673ffffffffffffffffffffffffffffffffffffffff16815260200190815260200160002060000160169054906101000a900460ff1660ff1614612916576040517f08c379a000000000000000000000000000000000000000000000000000000000815260040161290d90613ed6565b60405180910390fd5b600080905060006001905060405180608001604052803373ffffffffffffffffffffffffffffffffffffffff168152602001841515815260200183151581526020018260ff16815250600560003373ffffffffffffffffffffffffffffffffffffffff1673ffffffffffffffffffffffffffffffffffffffff16815260200190815260200160002060008201518160000160006101000a81548173ffffffffffffffffffffffffffffffffffffffff021916908373ffffffffffffffffffffffffffffffffffffffff16021790555060208201518160000160146101000a81548160ff02191690831515021790555060408201518160000160156101000a81548160ff02191690831515021790555060608201518160000160166101000a81548160ff021916908360ff1602179055509050507f6ed7fd9c095d25702b515b4fc3c80ddda04a36adc0a6619c93fe1a306784f51e3384604051612a7a9291906141ce565b60405180910390a1505050565b336001600560008373ffffffffffffffffffffffffffffffffffffffff1673ffffffffffffffffffffffffffffffffffffffff16815260200190815260200160002060000160169054906101000a900460ff1660ff1614612b1d576040517f08c379a0000000000000000000000000000000000000000000000000000000008152600401612b1490613f96565b60405180910390fd5b600560003373ffffffffffffffffffffffffffffffffffffffff1673ffffffffffffffffffffffffffffffffffffffff16815260200190815260200160002060000160149054906101000a900460ff1615612c8a576060600860003373ffffffffffffffffffffffffffffffffffffffff1673ffffffffffffffffffffffffffffffffffffffff168152602001908152602001600020805480602002602001604051908101604052809291908181526020018280548015612bfd57602002820191906000526020600020905b815481526020019060010190808311612be9575b5050505050905060008090505b8151811015612c3c57612c2f828281518110612c2257fe5b602002602001015161143c565b8080600101915050612c0a565b50600860003373ffffffffffffffffffffffffffffffffffffffff1673ffffffffffffffffffffffffffffffffffffffff1681526020019081526020016000206000612c889190613228565b505b600560003373ffffffffffffffffffffffffffffffffffffffff1673ffffffffffffffffffffffffffffffffffffffff168152602001908152602001600020600080820160006101000a81549073ffffffffffffffffffffffffffffffffffffffff02191690556000820160146101000a81549060ff02191690556000820160156101000a81549060ff02191690556000820160166101000a81549060ff021916905550507f5b8514bf599ab0e7b72a3b2d47ae13677daa88ebbf833cea7bad37b6df49ede3604051612d5c906141ae565b60405180910390a150565b33600060019054906101000a900473ffffffffffffffffffffffffffffffffffffffff1673ffffffffffffffffffffffffffffffffffffffff168173ffffffffffffffffffffffffffffffffffffffff1614612df8576040517f08c379a0000000000000000000000000000000000000000000000000000000008152600401612def90613eb6565b60405180910390fd5b6000809054906101000a900460ff16156000806101000a81548160ff02191690831515021790555050565b600080831415612e365760009050612e8d565b6000828402905082848281612e4757fe5b0414612e88576040517f08c379a0000000000000000000000000000000000000000000000000000000008152600401612e7f906140c4565b60405180910390fd5b809150505b92915050565b6000612ed583836040518060400160405280601a81526020017f536166654d6174683a206469766973696f6e206279207a65726f0000000000008152506130ea565b905092915050565b6000612f1f83836040518060400160405280601e81526020017f536166654d6174683a207375627472616374696f6e206f766572666c6f77000081525061314b565b905092915050565b6000807f537d3723252a534433306f37440000000000000000000000000000000000000090506000848483604051602001612f6493929190613d9e565b604051602081830303815290604052805190602001209050809250505092915050565b6060336001600560008373ffffffffffffffffffffffffffffffffffffffff1673ffffffffffffffffffffffffffffffffffffffff16815260200190815260200160002060000160169054906101000a900460ff1660ff161461301f576040517f08c379a000000000000000000000000000000000000000000000000000000000815260040161301690613f96565b60405180910390fd5b6000839050600180549050848601111561303e57846001805490500390505b8067ffffffffffffffff8111801561305557600080fd5b506040519080825280602002602001820160405280156130845781602001602082028036833780820191505090505b50925060008090505b818110156130e15760008187019050600181815481106130a957fe5b9060005260206000209060060201600001548583815181106130c757fe5b60200260200101818152505050808060010191505061308d565b50505092915050565b60008083118290613131576040517f08c379a00000000000000000000000000000000000000000000000000000000081526004016131289190613e94565b60405180910390fd5b50600083858161313d57fe5b049050809150509392505050565b6000838311158290613193576040517f08c379a000000000000000000000000000000000000000000000000000000000815260040161318a9190613e94565b60405180910390fd5b5060008385039050809150509392505050565b604051806101200160405280600080191681526020016000801916815260200160008152602001600073ffffffffffffffffffffffffffffffffffffffff1681526020016000815260200160006effffffffffffffffffffffffffffff168152602001600061ffff168152602001600060ff1681526020016000151581525090565b50805460008255906000526020600020908101906132469190613249565b50565b61326b91905b8082111561326757600081600090555060010161324f565b5090565b90565b60008135905061327d81614433565b92915050565b6000813590506132928161444a565b92915050565b6000813590506132a781614461565b92915050565b600082601f8301126132be57600080fd5b81356132d16132cc82614285565b614258565b915080825260208301602083018583830111156132ed57600080fd5b6132f883828461439b565b50505092915050565b60008135905061331081614478565b92915050565b6000813590506133258161448f565b92915050565b60006020828403121561333d57600080fd5b600061334b8482850161326e565b91505092915050565b60006020828403121561336657600080fd5b600061337484828501613283565b91505092915050565b60006020828403121561338f57600080fd5b600061339d84828501613298565b91505092915050565b600080600080600060a086880312156133be57600080fd5b60006133cc88828901613298565b955050602086013567ffffffffffffffff8111156133e957600080fd5b6133f5888289016132ad565b945050604086013567ffffffffffffffff81111561341257600080fd5b61341e888289016132ad565b935050606061342f88828901613301565b925050608061344088828901613316565b9150509295509295909350565b6000806040838503121561346057600080fd5b600061346e85828601613298565b925050602061347f85828601613301565b9150509250929050565b6000806000806080858703121561349f57600080fd5b60006134ad87828801613301565b94505060206134be87828801613301565b93505060406134cf87828801613316565b92505060606134e087828801613301565b91505092959194509250565b60006134f883836135a6565b60208301905092915050565b61350d81614365565b82525050565b61351c81614306565b82525050565b61353361352e82614306565b6143dd565b82525050565b6000613544826142c1565b61354e81856142e4565b9350613559836142b1565b8060005b8381101561358a57815161357188826134ec565b975061357c836142d7565b92505060018101905061355d565b5085935050505092915050565b6135a081614318565b82525050565b6135af81614324565b82525050565b6135be81614324565b82525050565b6135d56135d082614324565b6143ef565b82525050565b60006135e6826142cc565b6135f081856142f5565b93506136008185602086016143aa565b61360981614415565b840191505092915050565b60006136216013836142f5565b91507f63616c6c6572206973206e6f742061646d696e000000000000000000000000006000830152602082019050919050565b60006136616017836142f5565b91507f7573657220616c726561647920726567697374657265640000000000000000006000830152602082019050919050565b60006136a1601c836142f5565b91507f73656c6c657220617070726f766564207375636365737366756c6c79000000006000830152602082019050919050565b60006136e1601b836142f5565b91507f626f6f6b73686f7020697320636c6f7365642062792061646d696e00000000006000830152602082019050919050565b60006137216013836142f5565b91507f626f6f6b20616c726561647920657869737473000000000000000000000000006000830152602082019050919050565b60006137616030836142f5565b91507f75736572206973206e6f7420612073656c6c6572206f72206e6f74207965742060008301527f617070726f76656420746f2073656c6c000000000000000000000000000000006020830152604082019050919050565b60006137c76027836142f5565b91507f63616e6e6f74206665746368206d6f7265207468616e20353020626f6f6b732060008301527f6174206f6e6365000000000000000000000000000000000000000000000000006020830152604082019050919050565b600061382d6013836142f5565b91507f7573657220646f6573206e6f74206578697374000000000000000000000000006000830152602082019050919050565b600061386d6029836142f5565b91507f7573657220646f6573206e6f74206f776e207468697320626f6f6b20616e642060008301527f6e6f742061646d696e00000000000000000000000000000000000000000000006020830152604082019050919050565b60006138d36029836142f5565b91507f6164647265737320646f6573206e6f742062656c6f6e6720746f20757365722060008301527f6e6f722061646d696e00000000000000000000000000000000000000000000006020830152604082019050919050565b60006139396011836142f5565b91507f6e657720707269636520757064617465640000000000000000000000000000006000830152602082019050919050565b60006139796020836142f5565b91507f636f6d6d697373696f6e206d757374206265206265747765656e20302d3130306000830152602082019050919050565b60006139b9601b836142f5565b91507f7573657220646f6573206e6f74206f776e207468697320626f6f6b00000000006000830152602082019050919050565b60006139f96017836142f5565b91507f626f6f6b20686173206265656e207075726368617365640000000000000000006000830152602082019050919050565b6000613a396019836142f5565b91507f636f6d6d697373696f6e2073657420697320746f6f206c6f77000000000000006000830152602082019050919050565b6000613a796019836142f5565b91507f626f6f6b207375636365737366756c6c792072656d6f766564000000000000006000830152602082019050919050565b6000613ab96021836142f5565b91507f536166654d6174683a206d756c7469706c69636174696f6e206f766572666c6f60008301527f77000000000000000000000000000000000000000000000000000000000000006020830152604082019050919050565b6000613b1f6023836142f5565b91507f61636365737320746f6b656e20636f756c64206e6f742062652076616c69646160008301527f74656400000000000000000000000000000000000000000000000000000000006020830152604082019050919050565b6000613b856017836142f5565b91507f626f6f6b207375636365737366756c6c792061646465640000000000000000006000830152602082019050919050565b6000613bc56014836142f5565b91507f75736572206973206e6f7420612073656c6c65720000000000000000000000006000830152602082019050919050565b6000613c056013836142f5565b91507f626f6f6b20646f6573206e6f74206578697374000000000000000000000000006000830152602082019050919050565b6000613c456012836142f5565b91507f696e73756666696369656e742066756e647300000000000000000000000000006000830152602082019050919050565b6000613c856019836142f5565b91507f757365722072656d6f766564207375636365737366756c6c79000000000000006000830152602082019050919050565b6000613cc56017836142f5565b91507f75736572206164646564207375636365737366756c6c790000000000000000006000830152602082019050919050565b6000613d05601b836142f5565b91507f7573657220686173206e6f742070757263686173656420626f6f6b00000000006000830152602082019050919050565b6000613d45600b836142f5565b91507f626f6f6b20626f756768740000000000000000000000000000000000000000006000830152602082019050919050565b613d818161434e565b82525050565b613d98613d938261434e565b61440b565b82525050565b6000613daa8286613522565b601482019150613dba82856135c4565b602082019150613dca82846135c4565b602082019150819050949350505050565b6000613de78284613d87565b60208201915081905092915050565b60006020820190508181036000830152613e108184613539565b905092915050565b6000606082019050613e2d6000830186613597565b613e3a6020830185613597565b613e476040830184613597565b949350505050565b6000608082019050613e6460008301876135b5565b613e7160208301866135b5565b613e7e6040830185613513565b613e8b6060830184613d78565b95945050505050565b60006020820190508181036000830152613eae81846135db565b905092915050565b60006020820190508181036000830152613ecf81613614565b9050919050565b60006020820190508181036000830152613eef81613654565b9050919050565b60006020820190508181036000830152613f0f81613694565b9050919050565b60006020820190508181036000830152613f2f816136d4565b9050919050565b60006020820190508181036000830152613f4f81613714565b9050919050565b60006020820190508181036000830152613f6f81613754565b9050919050565b60006020820190508181036000830152613f8f816137ba565b9050919050565b60006020820190508181036000830152613faf81613820565b9050919050565b60006020820190508181036000830152613fcf81613860565b9050919050565b60006020820190508181036000830152613fef816138c6565b9050919050565b6000604082019050818103600083015261400f8161392c565b905061401e6020830184613d78565b92915050565b6000602082019050818103600083015261403d8161396c565b9050919050565b6000602082019050818103600083015261405d816139ac565b9050919050565b6000602082019050818103600083015261407d816139ec565b9050919050565b6000602082019050818103600083015261409d81613a2c565b9050919050565b600060208201905081810360008301526140bd81613a6c565b9050919050565b600060208201905081810360008301526140dd81613aac565b9050919050565b600060208201905081810360008301526140fd81613b12565b9050919050565b6000606082019050818103600083015261411d81613b78565b9050818103602083015261413181856135db565b9050818103604083015261414581846135db565b90509392505050565b6000602082019050818103600083015261416781613bb8565b9050919050565b6000602082019050818103600083015261418781613bf8565b9050919050565b600060208201905081810360008301526141a781613c38565b9050919050565b600060208201905081810360008301526141c781613c78565b9050919050565b600060608201905081810360008301526141e781613cb8565b90506141f66020830185613504565b6142036040830184613597565b9392505050565b6000602082019050818103600083015261422381613cf8565b9050919050565b6000604082019050818103600083015261424381613d38565b90506142526020830184613504565b92915050565b6000604051905081810181811067ffffffffffffffff8211171561427b57600080fd5b8060405250919050565b600067ffffffffffffffff82111561429c57600080fd5b601f19601f8301169050602081019050919050565b6000819050602082019050919050565b600081519050919050565b600081519050919050565b6000602082019050919050565b600082825260208201905092915050565b600082825260208201905092915050565b60006143118261432e565b9050919050565b60008115159050919050565b6000819050919050565b600073ffffffffffffffffffffffffffffffffffffffff82169050919050565b6000819050919050565b600060ff82169050919050565b600061437082614377565b9050919050565b600061438282614389565b9050919050565b60006143948261432e565b9050919050565b82818337600083830152505050565b60005b838110156143c85780820151818401526020810190506143ad565b838111156143d7576000848401525b50505050565b60006143e8826143f9565b9050919050565b6000819050919050565b600061440482614426565b9050919050565b6000819050919050565b6000601f19601f8301169050919050565b60008160601b9050919050565b61443c81614306565b811461444757600080fd5b50565b61445381614318565b811461445e57600080fd5b50565b61446a81614324565b811461447557600080fd5b50565b6144818161434e565b811461448c57600080fd5b50565b61449881614358565b81146144a357600080fd5b5056fea2646970667358221220b6397e0cc48a329d41660e53a6aec569cee271353b7353f454c0d9a8815dff8364736f6c634300060b0033",
  "immutableReferences": {},
  "source": "pragma solidity ^0.6.11;\r\npragma experimental ABIEncoderV2;\r\n\r\nlibrary SafeMath {\r\n    /**\r\n     * @dev Returns the addition of two unsigned integers, reverting on\r\n     * overflow.\r\n     *\r\n     * Counterpart to Solidity's `+` operator.\r\n     *\r\n     * Requirements:\r\n     *\r\n     * - Addition cannot overflow.\r\n     */\r\n    function add(uint256 a, uint256 b) internal pure returns (uint256) {\r\n        uint256 c = a + b;\r\n        require(c >= a, \"SafeMath: addition overflow\");\r\n\r\n        return c;\r\n    }\r\n\r\n    /**\r\n     * @dev Returns the subtraction of two unsigned integers, reverting on\r\n     * overflow (when the result is negative).\r\n     *\r\n     * Counterpart to Solidity's `-` operator.\r\n     *\r\n     * Requirements:\r\n     *\r\n     * - Subtraction cannot overflow.\r\n     */\r\n    function sub(uint256 a, uint256 b) internal pure returns (uint256) {\r\n        return sub(a, b, \"SafeMath: subtraction overflow\");\r\n    }\r\n\r\n    /**\r\n     * @dev Returns the subtraction of two unsigned integers, reverting with custom message on\r\n     * overflow (when the result is negative).\r\n     *\r\n     * Counterpart to Solidity's `-` operator.\r\n     *\r\n     * Requirements:\r\n     *\r\n     * - Subtraction cannot overflow.\r\n     */\r\n    function sub(uint256 a, uint256 b, string memory errorMessage) internal pure returns (uint256) {\r\n        require(b <= a, errorMessage);\r\n        uint256 c = a - b;\r\n\r\n        return c;\r\n    }\r\n\r\n    /**\r\n     * @dev Returns the multiplication of two unsigned integers, reverting on\r\n     * overflow.\r\n     *\r\n     * Counterpart to Solidity's `*` operator.\r\n     *\r\n     * Requirements:\r\n     *\r\n     * - Multiplication cannot overflow.\r\n     */\r\n    function mul(uint256 a, uint256 b) internal pure returns (uint256) {\r\n        // Gas optimization: this is cheaper than requiring 'a' not being zero, but the\r\n        // benefit is lost if 'b' is also tested.\r\n        // See: https://github.com/OpenZeppelin/openzeppelin-contracts/pull/522\r\n        if (a == 0) {\r\n            return 0;\r\n        }\r\n\r\n        uint256 c = a * b;\r\n        require(c / a == b, \"SafeMath: multiplication overflow\");\r\n\r\n        return c;\r\n    }\r\n\r\n    /**\r\n     * @dev Returns the integer division of two unsigned integers. Reverts on\r\n     * division by zero. The result is rounded towards zero.\r\n     *\r\n     * Counterpart to Solidity's `/` operator. Note: this function uses a\r\n     * `revert` opcode (which leaves remaining gas untouched) while Solidity\r\n     * uses an invalid opcode to revert (consuming all remaining gas).\r\n     *\r\n     * Requirements:\r\n     *\r\n     * - The divisor cannot be zero.\r\n     */\r\n    function div(uint256 a, uint256 b) internal pure returns (uint256) {\r\n        return div(a, b, \"SafeMath: division by zero\");\r\n    }\r\n\r\n    /**\r\n     * @dev Returns the integer division of two unsigned integers. Reverts with custom message on\r\n     * division by zero. The result is rounded towards zero.\r\n     *\r\n     * Counterpart to Solidity's `/` operator. Note: this function uses a\r\n     * `revert` opcode (which leaves remaining gas untouched) while Solidity\r\n     * uses an invalid opcode to revert (consuming all remaining gas).\r\n     *\r\n     * Requirements:\r\n     *\r\n     * - The divisor cannot be zero.\r\n     */\r\n    function div(uint256 a, uint256 b, string memory errorMessage) internal pure returns (uint256) {\r\n        require(b > 0, errorMessage);\r\n        uint256 c = a / b;\r\n        // assert(a == b * c + a % b); // There is no case in which this doesn't hold\r\n\r\n        return c;\r\n    }\r\n\r\n    /**\r\n     * @dev Returns the remainder of dividing two unsigned integers. (unsigned integer modulo),\r\n     * Reverts when dividing by zero.\r\n     *\r\n     * Counterpart to Solidity's `%` operator. This function uses a `revert`\r\n     * opcode (which leaves remaining gas untouched) while Solidity uses an\r\n     * invalid opcode to revert (consuming all remaining gas).\r\n     *\r\n     * Requirements:\r\n     *\r\n     * - The divisor cannot be zero.\r\n     */\r\n    function mod(uint256 a, uint256 b) internal pure returns (uint256) {\r\n        return mod(a, b, \"SafeMath: modulo by zero\");\r\n    }\r\n\r\n    /**\r\n     * @dev Returns the remainder of dividing two unsigned integers. (unsigned integer modulo),\r\n     * Reverts with custom message when dividing by zero.\r\n     *\r\n     * Counterpart to Solidity's `%` operator. This function uses a `revert`\r\n     * opcode (which leaves remaining gas untouched) while Solidity uses an\r\n     * invalid opcode to revert (consuming all remaining gas).\r\n     *\r\n     * Requirements:\r\n     *\r\n     * - The divisor cannot be zero.\r\n     */\r\n    function mod(uint256 a, uint256 b, string memory errorMessage) internal pure returns (uint256) {\r\n        require(b != 0, errorMessage);\r\n        return a % b;\r\n    }\r\n}\r\n\r\n/** \r\n * @title CentralBBookshop\r\n * @dev Implements blockchain bookstore (for book owners and readers) + IPFS storage\r\n */\r\ncontract CentralBBookshop {\r\n    \r\n    using SafeMath for uint256;\r\n    using SafeMath for uint16;\r\n    \r\n    bool private bookshopIsClosed = false;\r\n    address payable private admin;\r\n    \r\n    constructor(uint8 minimumCommision) public{\r\n        admin = msg.sender;\r\n        BOOKSHOP_MINIMUM_COMMISSION = minimumCommision;\r\n    }\r\n    \r\n    Book[] private booksArr;\r\n    \r\n    uint8 private BOOKSHOP_MINIMUM_COMMISSION;\r\n    \r\n    // the list of books indexed by book hash -> numerical id\r\n    mapping (bytes32 => uint) private booksHashes;\r\n    \r\n    // the list of books indexed by IPFS hash -> book id hash\r\n    mapping (bytes32 => bytes32) private IPFSHashes;\r\n    \r\n    // the list of participants indexed by address\r\n    mapping (address => User) private users;\r\n    \r\n    // list of all book purchase tokens\r\n    // for each book (bookHash), there is a collection of buyers' accessTokens (addr -> accessToken)\r\n    mapping (bytes32 => mapping (address => bytes32)) private purchaseTokens;\r\n    \r\n    // list of books bought by users [readers]\r\n    mapping (address => bytes32[]) private boughtBooks;\r\n    \r\n    // lists of books owned by users [publishers]\r\n    mapping (address => bytes32[]) private ownedBooks;\r\n    \r\n    \r\n    // STRUCTS\r\n    \r\n    // user can be a book seller and/or buyer\r\n    // all users can buy by default but need approval to sell\r\n    struct User{\r\n        address userAddr;\r\n        bool seller;  // book owner\r\n        bool isSellerApproved; // book owners approval status\r\n        uint8 exists; // has been registered\r\n    }\r\n    \r\n    struct Book{\r\n        bytes32 bookHash; // book id hash\r\n        bytes32 IPFShash; // book ipfs reference\r\n        uint id; // (Id - 1) is the position of book in dynamic array\r\n        address payable owner;\r\n        uint256 price; // price in tokens\r\n        uint120 purchaseCount; // number of book purchases\r\n        // percentage 0-100 commission to store\r\n        // 10000th (10% -> 1000) to keep 2dp\r\n        uint16 commission;\r\n        uint8 exists;\r\n        bool isApproved; //approval for sales\r\n    }\r\n    \r\n    \r\n    // EVENTS\r\n    \r\n    event UserCreated(string message, address userAddress, bool isBookOwner);\r\n    event UserRemoved(string message);\r\n    event SellerApproved(string message);\r\n    event BookAdded(string message, bytes32 indexed bookHash, string title, string author);\r\n    event PriceUpdated(string message, uint price);\r\n    event BookRemoved(string message);\r\n    event BookBought(string message, bytes32 indexed bookHash, address indexed buyer, address seller);\r\n    \r\n    \r\n    // MODIFIERS\r\n    \r\n    /** \r\n     * @dev Checks if caller is Bookshop admin\r\n     * @param userAddress Address of user\r\n     */\r\n    modifier isAdmin(address userAddress){\r\n        require(userAddress == admin, \"caller is not admin\");\r\n        _;\r\n    }\r\n\r\n    /** \r\n     * @dev Checks if contract circuit breaker hasn't been activated\r\n     */\r\n    modifier bookshopIsOpen(){\r\n        require(bookshopIsClosed == false, \"bookshop is closed by admin\");\r\n        _;\r\n    }\r\n    \r\n    /** \r\n     * @dev Checks if user exists in Bookshop record\r\n     * @param userAddress Address of user\r\n     */\r\n    modifier userExists(address userAddress){\r\n        require(users[userAddress].exists == 1, \"user does not exist\");\r\n        _;\r\n    }\r\n\r\n    modifier isUserOrAdmin(address userAddress){\r\n        require(users[userAddress].exists == 1 || userAddress == admin, \"address does not belong to user nor admin\");\r\n        _;\r\n    }\r\n    \r\n    /** \r\n     * @dev Checks if book exists\r\n     * @param bookHash Hash reference of book\r\n     */\r\n    modifier doesBookExist(bytes32 bookHash){\r\n        require(booksHashes[bookHash] != 0, \"book does not exist\");\r\n        uint bookId = booksHashes[bookHash];\r\n        require(booksArr[bookId - 1].id != 0, \"book does not exist\");\r\n        _;\r\n    }\r\n    \r\n    /** \r\n     * @dev Checks if existing book belongs to specified address\r\n     * @param userAddress Address of user\r\n     * @param bookHash Hash reference of book\r\n     */\r\n    modifier isBookOwner(address userAddress, bytes32 bookHash){\r\n        uint bookId = booksHashes[bookHash];\r\n        require(booksArr[bookId - 1].owner == userAddress, \"user does not own this book\");\r\n        _;\r\n    }\r\n    \r\n    /** \r\n     * @dev Checks if user with specified address is the owner of the specified book or an admin\r\n     * @param userAddress Address of user\r\n     * @param bookHash Hash reference of book\r\n     */\r\n    modifier isBookOwnerOrAdmin(address userAddress, bytes32 bookHash){\r\n        uint bookId = booksHashes[bookHash];\r\n        require(booksArr[bookId - 1].owner == userAddress || admin == userAddress, \"user does not own this book and not admin\");\r\n        _;\r\n    }\r\n    \r\n    /** \r\n     * @dev Checks if user with specified address has purchased the specified book\r\n     * and has access token validated.\r\n     * @param userAddress Address of user\r\n     * @param bookHash Hash reference of book\r\n     */\r\n    modifier hasPurchasedBook(bytes32 bookHash, bytes32 IPFShash, address userAddress){\r\n        require(purchaseTokens[bookHash][userAddress] != \"\", \"user has not purchased book\");\r\n        require(generateAccessToken(userAddress, IPFShash) == purchaseTokens[bookHash][userAddress], \"access token could not be validated\");\r\n        _;\r\n    }\r\n    \r\n    /** \r\n     * @dev Checks if user with specified address is a seller and approved to sell\r\n     * @param userAddress Address of user\r\n     */\r\n    modifier canSellBook(address userAddress){\r\n        require(users[userAddress].seller && users[userAddress].isSellerApproved, \"user is not a seller or not yet approved to sell\");\r\n        _;\r\n    }\r\n    \r\n    /** \r\n     * @dev Checks if commission specified by seller on a book is valid\r\n     * @param commission Commission over book sales (in percentage)\r\n     */\r\n    modifier validCommission(uint8 commission){\r\n        require(commission >= 0 && commission <= 100, \"commission must be between 0-100\");\r\n        require(commission >= BOOKSHOP_MINIMUM_COMMISSION, \"commission set is too low\");\r\n        _;\r\n    }\r\n    \r\n    /** \r\n     * @dev Checks if reader sends sufficient funds to purchase book\r\n     * @param price The book's selling price\r\n     */\r\n    modifier sufficientFunds(uint price){\r\n        require(price <= msg.value, \"insufficient funds\");\r\n        _;\r\n    }\r\n    \r\n    /** \r\n     * @dev Refunds buyer with excess money after payment\r\n     * @param price The book's selling price\r\n     */\r\n    modifier returnExcess(uint price) {\r\n        //refund them after pay for book\r\n        _;\r\n        //this is a silent failure if \"there is no leftover to refund to buyer\"\r\n        if(msg.value > price){ \r\n            uint amountToRefund = msg.value - price;\r\n            msg.sender.transfer(amountToRefund);\r\n        }        \r\n    }\r\n    \r\n    /** \r\n     * @dev Checks if book has not been purchased\r\n     * @param bookHash Hash reference of book\r\n     */\r\n    modifier notPurchased(bytes32 bookHash){\r\n        uint bookId = booksHashes[bookHash];\r\n        require(booksArr[bookId - 1].purchaseCount == 0, \"book has been purchased\");\r\n        _;\r\n    }\r\n    \r\n    /** \r\n     * @dev Checks if book has been approved to be sold\r\n     * @param bookHash Hash reference of book\r\n     */\r\n    modifier isBookSaleApproved(bytes32 bookHash){\r\n        uint bookId = booksHashes[bookHash];\r\n        require(booksArr[bookId - 1].isApproved, \"book is not approved for sale\");\r\n        _;\r\n    }\r\n    \r\n    /** \r\n     * @dev Toggle contract activeness. (Circuit breaker)\r\n     */\r\n    function changeBookshopOpenStatus() isAdmin(msg.sender) external {\r\n        bookshopIsClosed = !bookshopIsClosed;\r\n    }\r\n    \r\n    /** \r\n     * @dev Seller adds new book for owner     \r\n     * @param _IPFShash Book reference on IPFS\r\n     * @param _title Book title\r\n     * @param _price Book reference on IPFS\r\n     * @param _commission Percentage commission 0-100 to be shared with store on sales\r\n     */\r\n    function addBook(bytes32 _IPFShash, string memory _title, string memory _author, uint _price, uint8 _commission) \r\n        userExists(msg.sender) canSellBook(msg.sender) validCommission(_commission) external {\r\n\r\n        bytes32 _bookHash = IPFSHashes[_IPFShash];\r\n        uint _bookId = booksHashes[_bookHash];\r\n        require(_bookId == 0, \"book already exists\");\r\n        \r\n        bool isApproved;\r\n        \r\n        if(_commission >= BOOKSHOP_MINIMUM_COMMISSION){\r\n            isApproved = true;\r\n        }\r\n        \r\n        uint commission = uint16(100).mul(_commission);\r\n        uint newBookId = booksArr.length + 1;\r\n        \r\n        _bookHash = keccak256(abi.encodePacked(newBookId));\r\n        \r\n        // keep hash mappings\r\n        booksHashes[_bookHash] = newBookId;\r\n        IPFSHashes[_IPFShash] = _bookHash;\r\n        ownedBooks[msg.sender].push(_bookHash);\r\n        \r\n        Book memory book;\r\n        book.IPFShash = _IPFShash;\r\n        book.bookHash = _bookHash;\r\n        book.id = newBookId;\r\n        book.owner = msg.sender;\r\n        book.price = _price;\r\n        book.purchaseCount = 0;\r\n        book.commission = uint16(commission);\r\n        book.exists = 1;\r\n        book.isApproved = isApproved;\r\n        \r\n        booksArr.push(book);\r\n        \r\n        emit BookAdded(\"book successfully added\", _bookHash, _title, _author);\r\n    }\r\n    \r\n    /** \r\n     * @dev Registers new user\r\n     * @param bookOwner Is new user a book owner?\r\n     */\r\n    function addUser(bool bookOwner) bookshopIsOpen external {\r\n        require(users[msg.sender].exists == 0, \"user already registered\");\r\n        \r\n        bool isSellerApproved = false;\r\n        uint8 exists = 1;\r\n        \r\n        users[msg.sender] = User(msg.sender, bookOwner, isSellerApproved, exists);\r\n        \r\n        emit UserCreated(\"user added successfully\", msg.sender, bookOwner);\r\n    }\r\n    \r\n    \r\n    /** \r\n     * @dev Unregisters existing user, and remove all owned books\r\n     */\r\n    function removeUser() userExists(msg.sender) external {\r\n        // remove all user's books if seller\r\n        if(users[msg.sender].seller){\r\n             bytes32[] memory hashes = ownedBooks[msg.sender];   \r\n             \r\n             for(uint i = 0; i < hashes.length; i++){\r\n                 removeBook(hashes[i]);\r\n             }\r\n             delete ownedBooks[msg.sender];\r\n        }\r\n        \r\n        delete users[msg.sender];\r\n        \r\n        emit UserRemoved(\"user removed successfully\");\r\n    }\r\n    \r\n    \r\n    /** \r\n     * @dev Admin approves seller to be able to list books and receive payments\r\n     * @notice can only be done while contract is active via circuit breaker\r\n     * @param userAddress address of the seller to be approved\r\n     */\r\n    function approveSeller(address userAddress) bookshopIsOpen isAdmin(msg.sender) userExists(userAddress) external {\r\n        if(users[userAddress].seller){\r\n            User storage user = users[userAddress];\r\n            user.isSellerApproved = true;\r\n            emit SellerApproved(\"seller approved successfully\");\r\n        }\r\n        else{\r\n            revert(\"user is not a seller\");\r\n        }\r\n    }\r\n    \r\n    /** \r\n     * @dev Reader pays for book access\r\n     * @notice can only be done while contract is active via circuit breaker\r\n     * @param bookHash Book IPFS reference\r\n     */\r\n    function buyBook(bytes32 bookHash) bookshopIsOpen userExists(msg.sender) doesBookExist(bookHash) sufficientFunds(booksArr[booksHashes[bookHash] - 1].price) \r\n    returnExcess(booksArr[booksHashes[bookHash] - 1].price) payable external {\r\n        \r\n        //give user token hash(address + bookHash)\r\n        uint bookId = booksHashes[bookHash];\r\n        Book memory book = booksArr[bookId - 1];\r\n        \r\n        address payable seller = book.owner;\r\n        \r\n        uint commissionFunds = book.price.mul(book.commission).div(10000);\r\n        uint paymentToSeller = book.price.sub(commissionFunds);\r\n        \r\n        // Generate access token for user\r\n        bytes32 accessToken = generateAccessToken(msg.sender, book.IPFShash);\r\n        // store access token\r\n        purchaseTokens[bookHash][msg.sender] = accessToken;\r\n        // keep book purchase\r\n        boughtBooks[msg.sender].push(bookHash);\r\n\r\n        seller.transfer(paymentToSeller);\r\n        admin.transfer(commissionFunds);        \r\n        \r\n        emit BookBought(\"book bought\", bookHash, msg.sender, seller);\r\n    }\r\n    \r\n    /** \r\n     * @dev Book owner changes price of enlisted book\r\n     * @param bookHash Book's IPFS storage reference\r\n     * @param newPrice New price for book\r\n     */\r\n    function updateBookPrice(bytes32 bookHash, uint newPrice) doesBookExist(bookHash) isBookOwner(msg.sender, bookHash) external {\r\n        uint bookId = booksHashes[bookHash];\r\n        Book storage book = booksArr[bookId - 1];\r\n        book.price = newPrice;\r\n        \r\n        emit PriceUpdated(\"new price updated\", book.price);\r\n    }\r\n    \r\n    /** \r\n     * @dev Book owner or Admin removes book from store\r\n     * @param bookHash Book's IPFS storage reference\r\n     */\r\n    function removeBook(bytes32 bookHash) doesBookExist(bookHash) notPurchased(bookHash) isBookOwnerOrAdmin(msg.sender, bookHash) public{\r\n        Book memory book = booksArr[booksHashes[bookHash] - 1];\r\n        delete ownedBooks[book.owner];\r\n        delete booksArr[booksHashes[bookHash] - 1];\r\n        delete booksHashes[bookHash];\r\n        delete IPFSHashes[bookHash];\r\n        \r\n        emit BookRemoved(\"book successfully removed\");\r\n    }\r\n    \r\n    /** \r\n     * @dev Book seller gets all listed/owned books\r\n     * @return _ownedBooks Array of all books owned\r\n     */\r\n    function getOwnedBooks() canSellBook(msg.sender) userExists(msg.sender) view external returns(bytes32[] memory _ownedBooks){\r\n        _ownedBooks = ownedBooks[msg.sender];\r\n        for(uint i=0; i < _ownedBooks.length; i++){\r\n            // exclude the leftover hashes in state array map ownedBooks\r\n            if(booksHashes[_ownedBooks[i]] == 0){\r\n                delete _ownedBooks[i];\r\n            }\r\n        }\r\n    }\r\n    \r\n    /**\r\n     * @dev Verify/Authenticate existing user \r\n     */\r\n    function getUser() isUserOrAdmin(msg.sender) view external returns(bool _authStatus, bool _isSeller, bool _isAdmin){\r\n        _authStatus = true;\r\n        _isSeller = users[msg.sender].seller;\r\n        if(msg.sender == admin) _isAdmin = true;\r\n    }\r\n    \r\n    /** \r\n     * @dev User requests for book\r\n     * @param _bookHash Book IPFS reference\r\n     * @return bookHash Book hash\r\n     * @return IPFShash IPFS reference to book\r\n     * @return owner Address of Book owner\r\n     * @return price Current selling price of book\r\n     */\r\n    function requestBook(bytes32 _bookHash) userExists(msg.sender) \r\n    hasPurchasedBook(_bookHash, booksArr[booksHashes[_bookHash] - 1].IPFShash, msg.sender) doesBookExist(_bookHash) view external returns(\r\n        bytes32 bookHash,\r\n        bytes32 IPFShash,\r\n        address owner,\r\n        uint price){\r\n            \r\n       uint bookId = booksHashes[_bookHash];\r\n       price = booksArr[bookId - 1].price;\r\n       owner = booksArr[bookId - 1].owner;\r\n       IPFShash = booksArr[bookId - 1].IPFShash;\r\n       \r\n       //get author, title and others via front end from event BookAdded()\r\n       \r\n       return (_bookHash, IPFShash, owner, price);\r\n    }\r\n    \r\n     \r\n    /** \r\n     * @dev User fetches available books using filters. Client fetches for max of 50 at a time\r\n     * @param _minPrice Minimum price filter (not implemented)\r\n     * @param _maxPrice Maximum price filter (not implemented)\r\n     * @return _booksHashes IPFS Reference Hashes of available books\r\n     */\r\n    function getAvailableBooks(uint _maxPrice, uint _minPrice, uint8 _count, uint _start) userExists(msg.sender) view external returns (bytes32[] memory){\r\n        require(_count <= 50, \"cannot fetch more than 50 books at once\");\r\n        \r\n        // get already purchased books for removal\r\n        bytes32[] memory myPurchasedBooks = getUserPurchasedBooks(msg.sender);\r\n        bytes32[] memory newBooksPool = new bytes32[](_count);\r\n        Book memory book;\r\n        bytes32[] memory responseBooksHashes = new bytes32[](_count);\r\n        \r\n        do{\r\n            // get books from pool of all books specifying expected count and starting bookID\r\n            newBooksPool = listBooks(_start, _count);\r\n            \r\n            for(uint i = 0; i < newBooksPool.length; i++){\r\n                \r\n                for(uint j = 0; j < myPurchasedBooks.length; j++){\r\n                    \r\n                    book = booksArr[booksHashes[newBooksPool[i]] - 1];\r\n                    \r\n                    // remove from fetch pool unapproved or already purchased book\r\n                    if(!book.isApproved || newBooksPool[i] == myPurchasedBooks[j]){\r\n                        newBooksPool[i] = bytes32(0x0);\r\n                        break;\r\n                    }    \r\n                }\r\n                if(responseBooksHashes.length > _count){\r\n                    break;\r\n                }\r\n                \r\n                // if book hash is not already deleted, add to response\r\n                if(newBooksPool[i] != bytes32(0x0)){\r\n                    responseBooksHashes[i] = newBooksPool[i];\r\n                }\r\n            }\r\n        }while(responseBooksHashes.length < _count);\r\n        \r\n        return responseBooksHashes;\r\n    }\r\n    \r\n    /** \r\n     * @dev User requests for books paid for\r\n     */\r\n    function getMyPurchasedBooks() userExists(msg.sender) view public returns(bytes32[] memory _boughtBooks){\r\n        _boughtBooks = boughtBooks[msg.sender];\r\n    }\r\n    \r\n    /** \r\n     * @dev Requst books paid for by specified user\r\n     * @param userAddress address of user\r\n     */\r\n    function getUserPurchasedBooks(address userAddress) userExists(userAddress) view public returns(bytes32[] memory _boughtBooks){\r\n        _boughtBooks = boughtBooks[userAddress];\r\n    }\r\n    \r\n    \r\n    /** \r\n     * @dev Get some books incrementally (with range) from the large pool of books on blockchain\r\n     * @param _start Book Id to start from\r\n     * @param _count Number of books to fetch\r\n     */\r\n    function listBooks(uint _start, uint _count) userExists(msg.sender) view private returns(bytes32[] memory _booksHashes) {\r\n\r\n        uint maxIters = _count;\r\n        if( (_start + _count) > booksArr.length) {\r\n            maxIters = booksArr.length - _start;\r\n        }\r\n\r\n        _booksHashes = new bytes32[](maxIters);\r\n\r\n        for(uint i=0; i < maxIters; i++) {\r\n            uint bookId = _start + i;\r\n\r\n            _booksHashes[i] = booksArr[bookId].bookHash;\r\n        }\r\n    }\r\n    \r\n    /** \r\n     * @dev Generate/Validate Access key for user-specific access\r\n     * @param userAddr Address of user owning key\r\n     * @param IPFShash Book IPFS reference for which token is generated\r\n     * @return accessToken User token assigned for book access\r\n     */\r\n    function generateAccessToken(address userAddr, bytes32 IPFShash) private\r\n        pure returns(bytes32) { //isAdmin(msg.sender)\r\n        bytes32 salt = \"S}7#%*SD30o7D\";\r\n        bytes32 accessToken = keccak256(abi.encodePacked(userAddr, IPFShash, salt));\r\n        return accessToken;\r\n    }\r\n    \r\n}",
  "sourcePath": "C:/Users/USER/Desktop/BLOCKCHAIN/CONSENSYS/central-b-bookshop/contracts/CentralBBookshop.sol",
  "compiler": {
    "name": "solc",
    "version": "0.6.11+commit.5ef660b1.Emscripten.clang"
  },
  "schemaVersion": "3.3.1",
  "updatedAt": "2020-12-31T18:46:20.571Z",
  "networkType": "ethereum",
  "devdoc": {
    "details": "Implements blockchain bookstore (for book owners and readers) + IPFS storage",
    "kind": "dev",
    "methods": {
      "addBook(bytes32,string,string,uint256,uint8)": {
        "details": "Seller adds new book for owner     ",
        "params": {
          "_IPFShash": "Book reference on IPFS",
          "_commission": "Percentage commission 0-100 to be shared with store on sales",
          "_price": "Book reference on IPFS",
          "_title": "Book title"
        }
      },
      "addUser(bool)": {
        "details": "Registers new user",
        "params": {
          "bookOwner": "Is new user a book owner?"
        }
      },
      "approveSeller(address)": {
        "details": "Admin approves seller to be able to list books and receive payments",
        "params": {
          "userAddress": "address of the seller to be approved"
        }
      },
      "buyBook(bytes32)": {
        "details": "Reader pays for book access",
        "params": {
          "bookHash": "Book IPFS reference"
        }
      },
      "changeBookshopOpenStatus()": {
        "details": "Toggle contract activeness. (Circuit breaker)"
      },
      "getAvailableBooks(uint256,uint256,uint8,uint256)": {
        "details": "User fetches available books using filters. Client fetches for max of 50 at a time",
        "params": {
          "_maxPrice": "Maximum price filter (not implemented)",
          "_minPrice": "Minimum price filter (not implemented)"
        },
        "returns": {
          "_0": "_booksHashes IPFS Reference Hashes of available books"
        }
      },
      "getMyPurchasedBooks()": {
        "details": "User requests for books paid for"
      },
      "getOwnedBooks()": {
        "details": "Book seller gets all listed/owned books",
        "returns": {
          "_ownedBooks": "Array of all books owned"
        }
      },
      "getUser()": {
        "details": "Verify/Authenticate existing user "
      },
      "getUserPurchasedBooks(address)": {
        "details": "Requst books paid for by specified user",
        "params": {
          "userAddress": "address of user"
        }
      },
      "removeBook(bytes32)": {
        "details": "Book owner or Admin removes book from store",
        "params": {
          "bookHash": "Book's IPFS storage reference"
        }
      },
      "removeUser()": {
        "details": "Unregisters existing user, and remove all owned books"
      },
      "requestBook(bytes32)": {
        "details": "User requests for book",
        "params": {
          "_bookHash": "Book IPFS reference"
        },
        "returns": {
          "IPFShash": "IPFS reference to book",
          "bookHash": "Book hash",
          "owner": "Address of Book owner",
          "price": "Current selling price of book"
        }
      },
      "updateBookPrice(bytes32,uint256)": {
        "details": "Book owner changes price of enlisted book",
        "params": {
          "bookHash": "Book's IPFS storage reference",
          "newPrice": "New price for book"
        }
      }
    },
    "title": "CentralBBookshop",
    "version": 1
  },
  "userdoc": {
    "kind": "user",
    "methods": {
      "approveSeller(address)": {
        "notice": "can only be done while contract is active via circuit breaker"
      },
      "buyBook(bytes32)": {
        "notice": "can only be done while contract is active via circuit breaker"
      }
    },
    "version": 1
  }
}